{
  "_format": "hh-sol-artifact-1",
  "contractName": "MyEpicNFT",
  "sourceName": "contracts/MyEpicNFT.sol",
  "abi": [
    {
      "inputs": [],
      "stateMutability": "nonpayable",
      "type": "constructor"
    },
    {
      "anonymous": false,
      "inputs": [
        {
          "indexed": true,
          "internalType": "address",
          "name": "owner",
          "type": "address"
        },
        {
          "indexed": true,
          "internalType": "address",
          "name": "approved",
          "type": "address"
        },
        {
          "indexed": true,
          "internalType": "uint256",
          "name": "tokenId",
          "type": "uint256"
        }
      ],
      "name": "Approval",
      "type": "event"
    },
    {
      "anonymous": false,
      "inputs": [
        {
          "indexed": true,
          "internalType": "address",
          "name": "owner",
          "type": "address"
        },
        {
          "indexed": true,
          "internalType": "address",
          "name": "operator",
          "type": "address"
        },
        {
          "indexed": false,
          "internalType": "bool",
          "name": "approved",
          "type": "bool"
        }
      ],
      "name": "ApprovalForAll",
      "type": "event"
    },
    {
      "anonymous": false,
      "inputs": [
        {
          "indexed": false,
          "internalType": "address",
          "name": "sender",
          "type": "address"
        },
        {
          "indexed": false,
          "internalType": "uint256",
          "name": "tokenId",
          "type": "uint256"
        }
      ],
      "name": "NewEpicNFTMinted",
      "type": "event"
    },
    {
      "anonymous": false,
      "inputs": [
        {
          "indexed": true,
          "internalType": "address",
          "name": "from",
          "type": "address"
        },
        {
          "indexed": true,
          "internalType": "address",
          "name": "to",
          "type": "address"
        },
        {
          "indexed": true,
          "internalType": "uint256",
          "name": "tokenId",
          "type": "uint256"
        }
      ],
      "name": "Transfer",
      "type": "event"
    },
    {
      "inputs": [
        {
          "internalType": "address",
          "name": "to",
          "type": "address"
        },
        {
          "internalType": "uint256",
          "name": "tokenId",
          "type": "uint256"
        }
      ],
      "name": "approve",
      "outputs": [],
      "stateMutability": "nonpayable",
      "type": "function"
    },
    {
      "inputs": [
        {
          "internalType": "address",
          "name": "owner",
          "type": "address"
        }
      ],
      "name": "balanceOf",
      "outputs": [
        {
          "internalType": "uint256",
          "name": "",
          "type": "uint256"
        }
      ],
      "stateMutability": "view",
      "type": "function"
    },
    {
      "inputs": [
        {
          "internalType": "uint256",
          "name": "tokenId",
          "type": "uint256"
        }
      ],
      "name": "getApproved",
      "outputs": [
        {
          "internalType": "address",
          "name": "",
          "type": "address"
        }
      ],
      "stateMutability": "view",
      "type": "function"
    },
    {
      "inputs": [
        {
          "internalType": "address",
          "name": "owner",
          "type": "address"
        },
        {
          "internalType": "address",
          "name": "operator",
          "type": "address"
        }
      ],
      "name": "isApprovedForAll",
      "outputs": [
        {
          "internalType": "bool",
          "name": "",
          "type": "bool"
        }
      ],
      "stateMutability": "view",
      "type": "function"
    },
    {
      "inputs": [],
      "name": "makeAnEpicNFT",
      "outputs": [],
      "stateMutability": "nonpayable",
      "type": "function"
    },
    {
      "inputs": [],
      "name": "name",
      "outputs": [
        {
          "internalType": "string",
          "name": "",
          "type": "string"
        }
      ],
      "stateMutability": "view",
      "type": "function"
    },
    {
      "inputs": [
        {
          "internalType": "uint256",
          "name": "tokenId",
          "type": "uint256"
        }
      ],
      "name": "ownerOf",
      "outputs": [
        {
          "internalType": "address",
          "name": "",
          "type": "address"
        }
      ],
      "stateMutability": "view",
      "type": "function"
    },
    {
      "inputs": [
        {
          "internalType": "uint256",
          "name": "tokenId",
          "type": "uint256"
        }
      ],
      "name": "pickRandomWord",
      "outputs": [
        {
          "internalType": "string",
          "name": "",
          "type": "string"
        }
      ],
      "stateMutability": "view",
      "type": "function"
    },
    {
      "inputs": [
        {
          "internalType": "address",
          "name": "from",
          "type": "address"
        },
        {
          "internalType": "address",
          "name": "to",
          "type": "address"
        },
        {
          "internalType": "uint256",
          "name": "tokenId",
          "type": "uint256"
        }
      ],
      "name": "safeTransferFrom",
      "outputs": [],
      "stateMutability": "nonpayable",
      "type": "function"
    },
    {
      "inputs": [
        {
          "internalType": "address",
          "name": "from",
          "type": "address"
        },
        {
          "internalType": "address",
          "name": "to",
          "type": "address"
        },
        {
          "internalType": "uint256",
          "name": "tokenId",
          "type": "uint256"
        },
        {
          "internalType": "bytes",
          "name": "_data",
          "type": "bytes"
        }
      ],
      "name": "safeTransferFrom",
      "outputs": [],
      "stateMutability": "nonpayable",
      "type": "function"
    },
    {
      "inputs": [
        {
          "internalType": "address",
          "name": "operator",
          "type": "address"
        },
        {
          "internalType": "bool",
          "name": "approved",
          "type": "bool"
        }
      ],
      "name": "setApprovalForAll",
      "outputs": [],
      "stateMutability": "nonpayable",
      "type": "function"
    },
    {
      "inputs": [
        {
          "internalType": "bytes4",
          "name": "interfaceId",
          "type": "bytes4"
        }
      ],
      "name": "supportsInterface",
      "outputs": [
        {
          "internalType": "bool",
          "name": "",
          "type": "bool"
        }
      ],
      "stateMutability": "view",
      "type": "function"
    },
    {
      "inputs": [],
      "name": "symbol",
      "outputs": [
        {
          "internalType": "string",
          "name": "",
          "type": "string"
        }
      ],
      "stateMutability": "view",
      "type": "function"
    },
    {
      "inputs": [
        {
          "internalType": "uint256",
          "name": "tokenId",
          "type": "uint256"
        }
      ],
      "name": "tokenURI",
      "outputs": [
        {
          "internalType": "string",
          "name": "",
          "type": "string"
        }
      ],
      "stateMutability": "view",
      "type": "function"
    },
    {
      "inputs": [
        {
          "internalType": "address",
          "name": "from",
          "type": "address"
        },
        {
          "internalType": "address",
          "name": "to",
          "type": "address"
        },
        {
          "internalType": "uint256",
          "name": "tokenId",
          "type": "uint256"
        }
      ],
      "name": "transferFrom",
      "outputs": [],
      "stateMutability": "nonpayable",
      "type": "function"
    }
  ],
  "bytecode": "0x608060405260405180610160016040528061012f815260200162003c4a61012f91396008908051906020019062000038929190620004e5565b506040518061018001604052806040518060400160405280600381526020017f57454e000000000000000000000000000000000000000000000000000000000081525081526020016040518060400160405280600581526020017f597544616f00000000000000000000000000000000000000000000000000000081525081526020016040518060400160405280600681526020017f4368754b7569000000000000000000000000000000000000000000000000000081525081526020016040518060400160405280600481526020017f4e69616e0000000000000000000000000000000000000000000000000000000081525081526020016040518060400160405280600981526020017f4c755a756f5175616e000000000000000000000000000000000000000000000081525081526020016040518060400160405280600681526020017f5461694c6169000000000000000000000000000000000000000000000000000081525081526020016040518060400160405280600881526020017f4c694a696e48756900000000000000000000000000000000000000000000000081525081526020016040518060400160405280600781526020017f4368616e6765720000000000000000000000000000000000000000000000000081525081526020016040518060400160405280600581526020017f446157656900000000000000000000000000000000000000000000000000000081525081526020016040518060400160405280600581526020017f44614c756f00000000000000000000000000000000000000000000000000000081525081526020016040518060400160405280600981526020017f4c694861695175616e000000000000000000000000000000000000000000000081525081526020016040518060400160405280600781526020017f47756f4b654b6500000000000000000000000000000000000000000000000000815250815250600990600c6200031992919062000576565b503480156200032757600080fd5b506040518060400160405280601081526020017f5368694e69616e59694a69616e44414f000000000000000000000000000000008152506040518060400160405280600781526020017f534e594a44414f000000000000000000000000000000000000000000000000008152508160009080519060200190620003ac929190620004e5565b508060019080519060200190620003c5929190620004e5565b505050620004136040518060400160405280601881526020017f74686973206973206d79206e667420636f6e74726163742e00000000000000008152506200041960201b62000dec1760201c565b62000797565b620004b981604051602401620004309190620006ab565b6040516020818303038152906040527f41304fac000000000000000000000000000000000000000000000000000000007bffffffffffffffffffffffffffffffffffffffffffffffffffffffff19166020820180517bffffffffffffffffffffffffffffffffffffffffffffffffffffffff8381831617835250505050620004bc60201b60201c565b50565b60008151905060006a636f6e736f6c652e6c6f679050602083016000808483855afa5050505050565b828054620004f39062000721565b90600052602060002090601f01602090048101928262000517576000855562000563565b82601f106200053257805160ff191683800117855562000563565b8280016001018555821562000563579182015b828111156200056257825182559160200191906001019062000545565b5b509050620005729190620005dd565b5090565b828054828255906000526020600020908101928215620005ca579160200282015b82811115620005c9578251829080519060200190620005b8929190620004e5565b509160200191906001019062000597565b5b509050620005d99190620005fc565b5090565b5b80821115620005f8576000816000905550600101620005de565b5090565b5b8082111562000620576000818162000616919062000624565b50600101620005fd565b5090565b508054620006329062000721565b6000825580601f1062000646575062000667565b601f016020900490600052602060002090810190620006669190620005dd565b5b50565b60006200067782620006cf565b620006838185620006da565b935062000695818560208601620006eb565b620006a08162000786565b840191505092915050565b60006020820190508181036000830152620006c781846200066a565b905092915050565b600081519050919050565b600082825260208201905092915050565b60005b838110156200070b578082015181840152602081019050620006ee565b838111156200071b576000848401525b50505050565b600060028204905060018216806200073a57607f821691505b6020821081141562000751576200075062000757565b5b50919050565b7f4e487b7100000000000000000000000000000000000000000000000000000000600052602260045260246000fd5b6000601f19601f8301169050919050565b6134a380620007a76000396000f3fe608060405234801561001057600080fd5b50600436106100f55760003560e01c80636352211e11610097578063b88d4fde11610066578063b88d4fde14610296578063c87b56dd146102b2578063de9d132f146102e2578063e985e9c5146102ec576100f5565b80636352211e146101fc57806370a082311461022c57806395d89b411461025c578063a22cb4651461027a576100f5565b8063095ea7b3116100d3578063095ea7b31461017857806323b872dd146101945780633e1831dd146101b057806342842e0e146101e0576100f5565b806301ffc9a7146100fa57806306fdde031461012a578063081812fc14610148575b600080fd5b610114600480360381019061010f91906121ec565b61031c565b6040516101219190612d19565b60405180910390f35b6101326103fe565b60405161013f9190612d34565b60405180910390f35b610162600480360381019061015d919061223e565b610490565b60405161016f9190612c89565b60405180910390f35b610192600480360381019061018d91906121b0565b610515565b005b6101ae60048036038101906101a991906120aa565b61062d565b005b6101ca60048036038101906101c5919061223e565b61068d565b6040516101d79190612d34565b60405180910390f35b6101fa60048036038101906101f591906120aa565b6107ab565b005b6102166004803603810190610211919061223e565b6107cb565b6040516102239190612c89565b60405180910390f35b61024660048036038101906102419190612045565b61087d565b6040516102539190612f94565b60405180910390f35b610264610935565b6040516102719190612d34565b60405180910390f35b610294600480360381019061028f9190612174565b6109c7565b005b6102b060048036038101906102ab91906120f9565b6109dd565b005b6102cc60048036038101906102c7919061223e565b610a3f565b6040516102d99190612d34565b60405180910390f35b6102ea610b91565b005b6103066004803603810190610301919061206e565b610d58565b6040516103139190612d19565b60405180910390f35b60007f80ac58cd000000000000000000000000000000000000000000000000000000007bffffffffffffffffffffffffffffffffffffffffffffffffffffffff1916827bffffffffffffffffffffffffffffffffffffffffffffffffffffffff191614806103e757507f5b5e139f000000000000000000000000000000000000000000000000000000007bffffffffffffffffffffffffffffffffffffffffffffffffffffffff1916827bffffffffffffffffffffffffffffffffffffffffffffffffffffffff1916145b806103f757506103f682610e85565b5b9050919050565b60606000805461040d90613233565b80601f016020809104026020016040519081016040528092919081815260200182805461043990613233565b80156104865780601f1061045b57610100808354040283529160200191610486565b820191906000526020600020905b81548152906001019060200180831161046957829003601f168201915b5050505050905090565b600061049b82610eef565b6104da576040517f08c379a00000000000000000000000000000000000000000000000000000000081526004016104d190612ef4565b60405180910390fd5b6004600083815260200190815260200160002060009054906101000a900473ffffffffffffffffffffffffffffffffffffffff169050919050565b6000610520826107cb565b90508073ffffffffffffffffffffffffffffffffffffffff168373ffffffffffffffffffffffffffffffffffffffff161415610591576040517f08c379a000000000000000000000000000000000000000000000000000000000815260040161058890612f54565b60405180910390fd5b8073ffffffffffffffffffffffffffffffffffffffff166105b0610f5b565b73ffffffffffffffffffffffffffffffffffffffff1614806105df57506105de816105d9610f5b565b610d58565b5b61061e576040517f08c379a000000000000000000000000000000000000000000000000000000000815260040161061590612e34565b60405180910390fd5b6106288383610f63565b505050565b61063e610638610f5b565b8261101c565b61067d576040517f08c379a000000000000000000000000000000000000000000000000000000000815260040161067490612f74565b60405180910390fd5b6106888383836110fa565b505050565b606060006106c161069d84611356565b6040516020016106ad9190612c45565b604051602081830303815290604052611503565b9050600980549050816106d491906132ae565b905060098181548110610710577f4e487b7100000000000000000000000000000000000000000000000000000000600052603260045260246000fd5b90600052602060002001805461072590613233565b80601f016020809104026020016040519081016040528092919081815260200182805461075190613233565b801561079e5780601f106107735761010080835404028352916020019161079e565b820191906000526020600020905b81548152906001019060200180831161078157829003601f168201915b5050505050915050919050565b6107c6838383604051806020016040528060008152506109dd565b505050565b6000806002600084815260200190815260200160002060009054906101000a900473ffffffffffffffffffffffffffffffffffffffff169050600073ffffffffffffffffffffffffffffffffffffffff168173ffffffffffffffffffffffffffffffffffffffff161415610874576040517f08c379a000000000000000000000000000000000000000000000000000000000815260040161086b90612e74565b60405180910390fd5b80915050919050565b60008073ffffffffffffffffffffffffffffffffffffffff168273ffffffffffffffffffffffffffffffffffffffff1614156108ee576040517f08c379a00000000000000000000000000000000000000000000000000000000081526004016108e590612e54565b60405180910390fd5b600360008373ffffffffffffffffffffffffffffffffffffffff1673ffffffffffffffffffffffffffffffffffffffff168152602001908152602001600020549050919050565b60606001805461094490613233565b80601f016020809104026020016040519081016040528092919081815260200182805461097090613233565b80156109bd5780601f10610992576101008083540402835291602001916109bd565b820191906000526020600020905b8154815290600101906020018083116109a057829003601f168201915b5050505050905090565b6109d96109d2610f5b565b8383611536565b5050565b6109ee6109e8610f5b565b8361101c565b610a2d576040517f08c379a0000000000000000000000000000000000000000000000000000000008152600401610a2490612f74565b60405180910390fd5b610a39848484846116a3565b50505050565b6060610a4a82610eef565b610a89576040517f08c379a0000000000000000000000000000000000000000000000000000000008152600401610a8090612ed4565b60405180910390fd5b6000600660008481526020019081526020016000208054610aa990613233565b80601f0160208091040260200160405190810160405280929190818152602001828054610ad590613233565b8015610b225780601f10610af757610100808354040283529160200191610b22565b820191906000526020600020905b815481529060010190602001808311610b0557829003601f168201915b505050505090506000610b336116ff565b9050600081511415610b49578192505050610b8c565b600082511115610b7e578082604051602001610b66929190612bad565b60405160208183030381529060405292505050610b8c565b610b8784611716565b925050505b919050565b6000610b9d60076117bd565b90506000610baa8261068d565b9050600081604051602001610bbf9190612b96565b60405160208183030381529060405290506000600882604051602001610be6929190612bd1565b60405160208183030381529060405290506000610c2b83610c06846117cb565b604051602001610c17929190612c00565b6040516020818303038152906040526117cb565b9050600081604051602001610c409190612c67565b6040516020818303038152906040529050610c8f6040518060400160405280601581526020017f0a2d2d2d2d2d2d2d2d2d2d2d2d2d2d2d2d2d2d2d2d0000000000000000000000815250610dec565b610c9881610dec565b610cd66040518060400160405280601581526020017f2d2d2d2d2d2d2d2d2d2d2d2d2d2d2d2d2d2d2d2d0a0000000000000000000000815250610dec565b610ce03387611989565b610cea86826119a7565b610cf46007611a1b565b610d17604051806060016040528060258152602001613409602591398733611a31565b7febb98688741ffa4c7589bf325de30cf7becb63de567842e1ccdb6cb949fdc82c3387604051610d48929190612cf0565b60405180910390a1505050505050565b6000600560008473ffffffffffffffffffffffffffffffffffffffff1673ffffffffffffffffffffffffffffffffffffffff16815260200190815260200160002060008373ffffffffffffffffffffffffffffffffffffffff1673ffffffffffffffffffffffffffffffffffffffff16815260200190815260200160002060009054906101000a900460ff16905092915050565b610e8281604051602401610e009190612d34565b6040516020818303038152906040527f41304fac000000000000000000000000000000000000000000000000000000007bffffffffffffffffffffffffffffffffffffffffffffffffffffffff19166020820180517bffffffffffffffffffffffffffffffffffffffffffffffffffffffff8381831617835250505050611ad0565b50565b60007f01ffc9a7000000000000000000000000000000000000000000000000000000007bffffffffffffffffffffffffffffffffffffffffffffffffffffffff1916827bffffffffffffffffffffffffffffffffffffffffffffffffffffffff1916149050919050565b60008073ffffffffffffffffffffffffffffffffffffffff166002600084815260200190815260200160002060009054906101000a900473ffffffffffffffffffffffffffffffffffffffff1673ffffffffffffffffffffffffffffffffffffffff1614159050919050565b600033905090565b816004600083815260200190815260200160002060006101000a81548173ffffffffffffffffffffffffffffffffffffffff021916908373ffffffffffffffffffffffffffffffffffffffff160217905550808273ffffffffffffffffffffffffffffffffffffffff16610fd6836107cb565b73ffffffffffffffffffffffffffffffffffffffff167f8c5be1e5ebec7d5bd14f71427d1e84f3dd0314c0f7b2291e5b200ac8c7c3b92560405160405180910390a45050565b600061102782610eef565b611066576040517f08c379a000000000000000000000000000000000000000000000000000000000815260040161105d90612e14565b60405180910390fd5b6000611071836107cb565b90508073ffffffffffffffffffffffffffffffffffffffff168473ffffffffffffffffffffffffffffffffffffffff1614806110e057508373ffffffffffffffffffffffffffffffffffffffff166110c884610490565b73ffffffffffffffffffffffffffffffffffffffff16145b806110f157506110f08185610d58565b5b91505092915050565b8273ffffffffffffffffffffffffffffffffffffffff1661111a826107cb565b73ffffffffffffffffffffffffffffffffffffffff1614611170576040517f08c379a000000000000000000000000000000000000000000000000000000000815260040161116790612f14565b60405180910390fd5b600073ffffffffffffffffffffffffffffffffffffffff168273ffffffffffffffffffffffffffffffffffffffff1614156111e0576040517f08c379a00000000000000000000000000000000000000000000000000000000081526004016111d790612dd4565b60405180910390fd5b6111eb838383611af9565b6111f6600082610f63565b6001600360008573ffffffffffffffffffffffffffffffffffffffff1673ffffffffffffffffffffffffffffffffffffffff16815260200190815260200160002060008282546112469190613149565b925050819055506001600360008473ffffffffffffffffffffffffffffffffffffffff1673ffffffffffffffffffffffffffffffffffffffff168152602001908152602001600020600082825461129d9190613068565b92505081905550816002600083815260200190815260200160002060006101000a81548173ffffffffffffffffffffffffffffffffffffffff021916908373ffffffffffffffffffffffffffffffffffffffff160217905550808273ffffffffffffffffffffffffffffffffffffffff168473ffffffffffffffffffffffffffffffffffffffff167fddf252ad1be2c89b69c2b068fc378daa952ba7f163c4a11628f55a4df523b3ef60405160405180910390a4505050565b6060600082141561139e576040518060400160405280600181526020017f300000000000000000000000000000000000000000000000000000000000000081525090506114fe565b600082905060005b600082146113d05780806113b990613265565b915050600a826113c991906130be565b91506113a6565b60008167ffffffffffffffff811115611412577f4e487b7100000000000000000000000000000000000000000000000000000000600052604160045260246000fd5b6040519080825280601f01601f1916602001820160405280156114445781602001600182028036833780820191505090505b5090505b600085146114f75760018261145d9190613149565b9150600a8561146c91906132ae565b60306114789190613068565b60f81b8183815181106114b4577f4e487b7100000000000000000000000000000000000000000000000000000000600052603260045260246000fd5b60200101907effffffffffffffffffffffffffffffffffffffffffffffffffffffffffffff1916908160001a905350600a856114f091906130be565b9450611448565b8093505050505b919050565b6000816040516020016115169190612b96565b6040516020818303038152906040528051906020012060001c9050919050565b8173ffffffffffffffffffffffffffffffffffffffff168373ffffffffffffffffffffffffffffffffffffffff1614156115a5576040517f08c379a000000000000000000000000000000000000000000000000000000000815260040161159c90612df4565b60405180910390fd5b80600560008573ffffffffffffffffffffffffffffffffffffffff1673ffffffffffffffffffffffffffffffffffffffff16815260200190815260200160002060008473ffffffffffffffffffffffffffffffffffffffff1673ffffffffffffffffffffffffffffffffffffffff16815260200190815260200160002060006101000a81548160ff0219169083151502179055508173ffffffffffffffffffffffffffffffffffffffff168373ffffffffffffffffffffffffffffffffffffffff167f17307eab39ab6107e8899845ad3d59bd9653f200f220920489ca2b5937696c31836040516116969190612d19565b60405180910390a3505050565b6116ae8484846110fa565b6116ba84848484611afe565b6116f9576040517f08c379a00000000000000000000000000000000000000000000000000000000081526004016116f090612d94565b60405180910390fd5b50505050565b606060405180602001604052806000815250905090565b606061172182610eef565b611760576040517f08c379a000000000000000000000000000000000000000000000000000000000815260040161175790612f34565b60405180910390fd5b600061176a6116ff565b9050600081511161178a57604051806020016040528060008152506117b5565b8061179484611356565b6040516020016117a5929190612bad565b6040516020818303038152906040525b915050919050565b600081600001549050919050565b606060008251905060008114156117f45760405180602001604052806000815250915050611984565b600060036002836118059190613068565b61180f91906130be565b600461181b91906130ef565b9050600060208261182c9190613068565b67ffffffffffffffff81111561186b577f4e487b7100000000000000000000000000000000000000000000000000000000600052604160045260246000fd5b6040519080825280601f01601f19166020018201604052801561189d5781602001600182028036833780820191505090505b509050600060405180606001604052806040815260200161342e604091399050600181016020830160005b868110156119415760038101905062ffffff818a015116603f8160121c168401518060081b905060ff603f83600c1c1686015116810190508060081b905060ff603f8360061c1686015116810190508060081b905060ff603f831686015116810190508060e01b905080845260048401935050506118c8565b50600386066001811461195b576002811461196b57611976565b613d3d60f01b6002830352611976565b603d60f81b60018303525b508484525050819450505050505b919050565b6119a3828260405180602001604052806000815250611c95565b5050565b6119b082610eef565b6119ef576040517f08c379a00000000000000000000000000000000000000000000000000000000081526004016119e690612e94565b60405180910390fd5b80600660008481526020019081526020016000209080519060200190611a16929190611ed1565b505050565b6001816000016000828254019250508190555050565b611acb838383604051602401611a4993929190612d56565b6040516020818303038152906040527fe3849f79000000000000000000000000000000000000000000000000000000007bffffffffffffffffffffffffffffffffffffffffffffffffffffffff19166020820180517bffffffffffffffffffffffffffffffffffffffffffffffffffffffff8381831617835250505050611ad0565b505050565b60008151905060006a636f6e736f6c652e6c6f679050602083016000808483855afa5050505050565b505050565b6000611b1f8473ffffffffffffffffffffffffffffffffffffffff16611cf0565b15611c88578373ffffffffffffffffffffffffffffffffffffffff1663150b7a02611b48610f5b565b8786866040518563ffffffff1660e01b8152600401611b6a9493929190612ca4565b602060405180830381600087803b158015611b8457600080fd5b505af1925050508015611bb557506040513d601f19601f82011682018060405250810190611bb29190612215565b60015b611c38573d8060008114611be5576040519150601f19603f3d011682016040523d82523d6000602084013e611bea565b606091505b50600081511415611c30576040517f08c379a0000000000000000000000000000000000000000000000000000000008152600401611c2790612d94565b60405180910390fd5b805181602001fd5b63150b7a0260e01b7bffffffffffffffffffffffffffffffffffffffffffffffffffffffff1916817bffffffffffffffffffffffffffffffffffffffffffffffffffffffff191614915050611c8d565b600190505b949350505050565b611c9f8383611d03565b611cac6000848484611afe565b611ceb576040517f08c379a0000000000000000000000000000000000000000000000000000000008152600401611ce290612d94565b60405180910390fd5b505050565b600080823b905060008111915050919050565b600073ffffffffffffffffffffffffffffffffffffffff168273ffffffffffffffffffffffffffffffffffffffff161415611d73576040517f08c379a0000000000000000000000000000000000000000000000000000000008152600401611d6a90612eb4565b60405180910390fd5b611d7c81610eef565b15611dbc576040517f08c379a0000000000000000000000000000000000000000000000000000000008152600401611db390612db4565b60405180910390fd5b611dc860008383611af9565b6001600360008473ffffffffffffffffffffffffffffffffffffffff1673ffffffffffffffffffffffffffffffffffffffff1681526020019081526020016000206000828254611e189190613068565b92505081905550816002600083815260200190815260200160002060006101000a81548173ffffffffffffffffffffffffffffffffffffffff021916908373ffffffffffffffffffffffffffffffffffffffff160217905550808273ffffffffffffffffffffffffffffffffffffffff16600073ffffffffffffffffffffffffffffffffffffffff167fddf252ad1be2c89b69c2b068fc378daa952ba7f163c4a11628f55a4df523b3ef60405160405180910390a45050565b828054611edd90613233565b90600052602060002090601f016020900481019282611eff5760008555611f46565b82601f10611f1857805160ff1916838001178555611f46565b82800160010185558215611f46579182015b82811115611f45578251825591602001919060010190611f2a565b5b509050611f539190611f57565b5090565b5b80821115611f70576000816000905550600101611f58565b5090565b6000611f87611f8284612fe0565b612faf565b905082815260208101848484011115611f9f57600080fd5b611faa8482856131f1565b509392505050565b600081359050611fc1816133ac565b92915050565b600081359050611fd6816133c3565b92915050565b600081359050611feb816133da565b92915050565b600081519050612000816133da565b92915050565b600082601f83011261201757600080fd5b8135612027848260208601611f74565b91505092915050565b60008135905061203f816133f1565b92915050565b60006020828403121561205757600080fd5b600061206584828501611fb2565b91505092915050565b6000806040838503121561208157600080fd5b600061208f85828601611fb2565b92505060206120a085828601611fb2565b9150509250929050565b6000806000606084860312156120bf57600080fd5b60006120cd86828701611fb2565b93505060206120de86828701611fb2565b92505060406120ef86828701612030565b9150509250925092565b6000806000806080858703121561210f57600080fd5b600061211d87828801611fb2565b945050602061212e87828801611fb2565b935050604061213f87828801612030565b925050606085013567ffffffffffffffff81111561215c57600080fd5b61216887828801612006565b91505092959194509250565b6000806040838503121561218757600080fd5b600061219585828601611fb2565b92505060206121a685828601611fc7565b9150509250929050565b600080604083850312156121c357600080fd5b60006121d185828601611fb2565b92505060206121e285828601612030565b9150509250929050565b6000602082840312156121fe57600080fd5b600061220c84828501611fdc565b91505092915050565b60006020828403121561222757600080fd5b600061223584828501611ff1565b91505092915050565b60006020828403121561225057600080fd5b600061225e84828501612030565b91505092915050565b6122708161317d565b82525050565b61227f8161318f565b82525050565b600061229082613025565b61229a818561303b565b93506122aa818560208601613200565b6122b38161339b565b840191505092915050565b60006122c982613030565b6122d3818561304c565b93506122e3818560208601613200565b6122ec8161339b565b840191505092915050565b600061230282613030565b61230c818561305d565b935061231c818560208601613200565b80840191505092915050565b6000815461233581613233565b61233f818661305d565b9450600182166000811461235a576001811461236b5761239e565b60ff1983168652818601935061239e565b61237485613010565b60005b8381101561239657815481890152600182019150602081019050612377565b838801955050505b50505092915050565b60006123b460328361304c565b91507f4552433732313a207472616e7366657220746f206e6f6e20455243373231526560008301527f63656976657220696d706c656d656e74657200000000000000000000000000006020830152604082019050919050565b600061241a601c8361304c565b91507f4552433732313a20746f6b656e20616c7265616479206d696e746564000000006000830152602082019050919050565b600061245a60248361304c565b91507f4552433732313a207472616e7366657220746f20746865207a65726f2061646460008301527f72657373000000000000000000000000000000000000000000000000000000006020830152604082019050919050565b60006124c060198361304c565b91507f4552433732313a20617070726f766520746f2063616c6c6572000000000000006000830152602082019050919050565b6000612500602c8361304c565b91507f4552433732313a206f70657261746f7220717565727920666f72206e6f6e657860008301527f697374656e7420746f6b656e00000000000000000000000000000000000000006020830152604082019050919050565b6000612566600d8361305d565b91507f3c2f746578743e3c2f7376673e000000000000000000000000000000000000006000830152600d82019050919050565b60006125a660388361304c565b91507f4552433732313a20617070726f76652063616c6c6572206973206e6f74206f7760008301527f6e6572206e6f7220617070726f76656420666f7220616c6c00000000000000006020830152604082019050919050565b600061260c602a8361304c565b91507f4552433732313a2062616c616e636520717565727920666f7220746865207a6560008301527f726f2061646472657373000000000000000000000000000000000000000000006020830152604082019050919050565b600061267260298361304c565b91507f4552433732313a206f776e657220717565727920666f72206e6f6e657869737460008301527f656e7420746f6b656e00000000000000000000000000000000000000000000006020830152604082019050919050565b60006126d8602e8361304c565b91507f45524337323155524953746f726167653a2055524920736574206f66206e6f6e60008301527f6578697374656e7420746f6b656e0000000000000000000000000000000000006020830152604082019050919050565b600061273e60028361305d565b91507f227d0000000000000000000000000000000000000000000000000000000000006000830152600282019050919050565b600061277e60208361304c565b91507f4552433732313a206d696e7420746f20746865207a65726f20616464726573736000830152602082019050919050565b60006127be60318361304c565b91507f45524337323155524953746f726167653a2055524920717565727920666f722060008301527f6e6f6e6578697374656e7420746f6b656e0000000000000000000000000000006020830152604082019050919050565b6000612824602c8361304c565b91507f4552433732313a20617070726f76656420717565727920666f72206e6f6e657860008301527f697374656e7420746f6b656e00000000000000000000000000000000000000006020830152604082019050919050565b600061288a60298361304c565b91507f4552433732313a207472616e73666572206f6620746f6b656e2074686174206960008301527f73206e6f74206f776e00000000000000000000000000000000000000000000006020830152604082019050919050565b60006128f0602f8361304c565b91507f4552433732314d657461646174613a2055524920717565727920666f72206e6f60008301527f6e6578697374656e7420746f6b656e00000000000000000000000000000000006020830152604082019050919050565b6000612956600a8361305d565b91507f7b226e616d65223a2022000000000000000000000000000000000000000000006000830152600a82019050919050565b600061299660218361304c565b91507f4552433732313a20617070726f76616c20746f2063757272656e74206f776e6560008301527f72000000000000000000000000000000000000000000000000000000000000006020830152604082019050919050565b60006129fc600a8361305d565b91507f46495253545f574f5244000000000000000000000000000000000000000000006000830152600a82019050919050565b6000612a3c60648361305d565b91507f222c20226465736372697074696f6e223a2022412073696c656e74206865726f60008301527f2e204120776174636866756c2070726f746563746f722e2062792077656e222c60208301527f2022696d616765223a22646174613a696d6167652f7376672b786d6c3b62617360408301527f6536342c000000000000000000000000000000000000000000000000000000006060830152606482019050919050565b6000612aee601d8361305d565b91507f646174613a6170706c69636174696f6e2f6a736f6e3b6261736536342c0000006000830152601d82019050919050565b6000612b2e60318361304c565b91507f4552433732313a207472616e736665722063616c6c6572206973206e6f74206f60008301527f776e6572206e6f7220617070726f7665640000000000000000000000000000006020830152604082019050919050565b612b90816131e7565b82525050565b6000612ba282846122f7565b915081905092915050565b6000612bb982856122f7565b9150612bc582846122f7565b91508190509392505050565b6000612bdd8285612328565b9150612be982846122f7565b9150612bf482612559565b91508190509392505050565b6000612c0b82612949565b9150612c1782856122f7565b9150612c2282612a2f565b9150612c2e82846122f7565b9150612c3982612731565b91508190509392505050565b6000612c50826129ef565b9150612c5c82846122f7565b915081905092915050565b6000612c7282612ae1565b9150612c7e82846122f7565b915081905092915050565b6000602082019050612c9e6000830184612267565b92915050565b6000608082019050612cb96000830187612267565b612cc66020830186612267565b612cd36040830185612b87565b8181036060830152612ce58184612285565b905095945050505050565b6000604082019050612d056000830185612267565b612d126020830184612b87565b9392505050565b6000602082019050612d2e6000830184612276565b92915050565b60006020820190508181036000830152612d4e81846122be565b905092915050565b60006060820190508181036000830152612d7081866122be565b9050612d7f6020830185612b87565b612d8c6040830184612267565b949350505050565b60006020820190508181036000830152612dad816123a7565b9050919050565b60006020820190508181036000830152612dcd8161240d565b9050919050565b60006020820190508181036000830152612ded8161244d565b9050919050565b60006020820190508181036000830152612e0d816124b3565b9050919050565b60006020820190508181036000830152612e2d816124f3565b9050919050565b60006020820190508181036000830152612e4d81612599565b9050919050565b60006020820190508181036000830152612e6d816125ff565b9050919050565b60006020820190508181036000830152612e8d81612665565b9050919050565b60006020820190508181036000830152612ead816126cb565b9050919050565b60006020820190508181036000830152612ecd81612771565b9050919050565b60006020820190508181036000830152612eed816127b1565b9050919050565b60006020820190508181036000830152612f0d81612817565b9050919050565b60006020820190508181036000830152612f2d8161287d565b9050919050565b60006020820190508181036000830152612f4d816128e3565b9050919050565b60006020820190508181036000830152612f6d81612989565b9050919050565b60006020820190508181036000830152612f8d81612b21565b9050919050565b6000602082019050612fa96000830184612b87565b92915050565b6000604051905081810181811067ffffffffffffffff82111715612fd657612fd561336c565b5b8060405250919050565b600067ffffffffffffffff821115612ffb57612ffa61336c565b5b601f19601f8301169050602081019050919050565b60008190508160005260206000209050919050565b600081519050919050565b600081519050919050565b600082825260208201905092915050565b600082825260208201905092915050565b600081905092915050565b6000613073826131e7565b915061307e836131e7565b9250827fffffffffffffffffffffffffffffffffffffffffffffffffffffffffffffffff038211156130b3576130b26132df565b5b828201905092915050565b60006130c9826131e7565b91506130d4836131e7565b9250826130e4576130e361330e565b5b828204905092915050565b60006130fa826131e7565b9150613105836131e7565b9250817fffffffffffffffffffffffffffffffffffffffffffffffffffffffffffffffff048311821515161561313e5761313d6132df565b5b828202905092915050565b6000613154826131e7565b915061315f836131e7565b925082821015613172576131716132df565b5b828203905092915050565b6000613188826131c7565b9050919050565b60008115159050919050565b60007fffffffff0000000000000000000000000000000000000000000000000000000082169050919050565b600073ffffffffffffffffffffffffffffffffffffffff82169050919050565b6000819050919050565b82818337600083830152505050565b60005b8381101561321e578082015181840152602081019050613203565b8381111561322d576000848401525b50505050565b6000600282049050600182168061324b57607f821691505b6020821081141561325f5761325e61333d565b5b50919050565b6000613270826131e7565b91507fffffffffffffffffffffffffffffffffffffffffffffffffffffffffffffffff8214156132a3576132a26132df565b5b600182019050919050565b60006132b9826131e7565b91506132c4836131e7565b9250826132d4576132d361330e565b5b828206905092915050565b7f4e487b7100000000000000000000000000000000000000000000000000000000600052601160045260246000fd5b7f4e487b7100000000000000000000000000000000000000000000000000000000600052601260045260246000fd5b7f4e487b7100000000000000000000000000000000000000000000000000000000600052602260045260246000fd5b7f4e487b7100000000000000000000000000000000000000000000000000000000600052604160045260246000fd5b6000601f19601f8301169050919050565b6133b58161317d565b81146133c057600080fd5b50565b6133cc8161318f565b81146133d757600080fd5b50565b6133e38161319b565b81146133ee57600080fd5b50565b6133fa816131e7565b811461340557600080fd5b5056fe416e204e465420772f20494420257320686173206265656e206d696e74656420746f2025734142434445464748494a4b4c4d4e4f505152535455565758595a6162636465666768696a6b6c6d6e6f707172737475767778797a303132333435363738392b2fa26469706673582212201478693a8fbba75bcc8e6f4ec8376fe5a254b624a1aabd48174c4bb104345cf764736f6c634300080000333c73766720786d6c6e733d27687474703a2f2f7777772e77332e6f72672f323030302f73766727207072657365727665417370656374526174696f3d27784d696e594d696e206d656574272076696577426f783d273020302033353020333530273e3c7374796c653e2e62617365207b2066696c6c3a2077686974653b20666f6e742d66616d696c793a2073657269663b20666f6e742d73697a653a20313470783b207d3c2f7374796c653e3c726563742077696474683d273130302527206865696768743d2731303025272066696c6c3d27626c61636b27202f3e3c7465787420783d273530252720793d273530252720636c6173733d27626173652720646f6d696e616e742d626173656c696e653d276d6964646c652720746578742d616e63686f723d276d6964646c65273e",
  "linkReferences": {},
  "deployedLinkReferences": {}
}